{
  "address": "0x0Ffe32b859AEfc00af6dCA7Ba263E8A4E72d6Da7",
  "abi": [
    {
      "inputs": [
        {
          "internalType": "address",
          "name": "_endpoint",
          "type": "address"
        },
        {
          "internalType": "address",
          "name": "_delegate",
          "type": "address"
        }
      ],
      "stateMutability": "nonpayable",
      "type": "constructor"
    },
    {
      "inputs": [],
      "name": "InvalidDelegate",
      "type": "error"
    },
    {
      "inputs": [],
      "name": "InvalidEndpointCall",
      "type": "error"
    },
    {
      "inputs": [],
      "name": "LzTokenUnavailable",
      "type": "error"
    },
    {
      "inputs": [
        {
          "internalType": "uint32",
          "name": "eid",
          "type": "uint32"
        }
      ],
      "name": "NoPeer",
      "type": "error"
    },
    {
      "inputs": [
        {
          "internalType": "uint256",
          "name": "msgValue",
          "type": "uint256"
        }
      ],
      "name": "NotEnoughNative",
      "type": "error"
    },
    {
      "inputs": [
        {
          "internalType": "address",
          "name": "addr",
          "type": "address"
        }
      ],
      "name": "OnlyEndpoint",
      "type": "error"
    },
    {
      "inputs": [
        {
          "internalType": "uint32",
          "name": "eid",
          "type": "uint32"
        },
        {
          "internalType": "bytes32",
          "name": "sender",
          "type": "bytes32"
        }
      ],
      "name": "OnlyPeer",
      "type": "error"
    },
    {
      "inputs": [
        {
          "internalType": "address",
          "name": "owner",
          "type": "address"
        }
      ],
      "name": "OwnableInvalidOwner",
      "type": "error"
    },
    {
      "inputs": [
        {
          "internalType": "address",
          "name": "account",
          "type": "address"
        }
      ],
      "name": "OwnableUnauthorizedAccount",
      "type": "error"
    },
    {
      "inputs": [
        {
          "internalType": "address",
          "name": "token",
          "type": "address"
        }
      ],
      "name": "SafeERC20FailedOperation",
      "type": "error"
    },
    {
      "anonymous": false,
      "inputs": [
        {
          "indexed": false,
          "internalType": "uint256",
          "name": "requestId",
          "type": "uint256"
        }
      ],
      "name": "LotteryEndRequested",
      "type": "event"
    },
    {
      "anonymous": false,
      "inputs": [
        {
          "indexed": false,
          "internalType": "address",
          "name": "winner",
          "type": "address"
        },
        {
          "indexed": false,
          "internalType": "uint256",
          "name": "prize",
          "type": "uint256"
        },
        {
          "indexed": false,
          "internalType": "bool",
          "name": "winnerPaid",
          "type": "bool"
        },
        {
          "indexed": false,
          "internalType": "bool",
          "name": "ownerPaid",
          "type": "bool"
        }
      ],
      "name": "LotteryEnded",
      "type": "event"
    },
    {
      "anonymous": false,
      "inputs": [
        {
          "indexed": false,
          "internalType": "string",
          "name": "step",
          "type": "string"
        }
      ],
      "name": "LotteryEndingStep",
      "type": "event"
    },
    {
      "anonymous": false,
      "inputs": [
        {
          "indexed": false,
          "internalType": "uint256",
          "name": "lotteryId",
          "type": "uint256"
        },
        {
          "indexed": false,
          "internalType": "uint256",
          "name": "ticketPrice",
          "type": "uint256"
        },
        {
          "indexed": false,
          "internalType": "uint256",
          "name": "endTime",
          "type": "uint256"
        }
      ],
      "name": "NewLotteryStarted",
      "type": "event"
    },
    {
      "anonymous": false,
      "inputs": [
        {
          "indexed": true,
          "internalType": "address",
          "name": "previousOwner",
          "type": "address"
        },
        {
          "indexed": true,
          "internalType": "address",
          "name": "newOwner",
          "type": "address"
        }
      ],
      "name": "OwnershipTransferred",
      "type": "event"
    },
    {
      "anonymous": false,
      "inputs": [
        {
          "indexed": false,
          "internalType": "uint32",
          "name": "eid",
          "type": "uint32"
        },
        {
          "indexed": false,
          "internalType": "bytes32",
          "name": "peer",
          "type": "bytes32"
        }
      ],
      "name": "PeerSet",
      "type": "event"
    },
    {
      "anonymous": false,
      "inputs": [
        {
          "indexed": false,
          "internalType": "uint256",
          "name": "requestId",
          "type": "uint256"
        }
      ],
      "name": "RandomWordsRequested",
      "type": "event"
    },
    {
      "anonymous": false,
      "inputs": [
        {
          "indexed": false,
          "internalType": "address",
          "name": "buyer",
          "type": "address"
        },
        {
          "indexed": false,
          "internalType": "uint256",
          "name": "numberOfTickets",
          "type": "uint256"
        }
      ],
      "name": "TicketPurchased",
      "type": "event"
    },
    {
      "inputs": [],
      "name": "CREATOR_FEE",
      "outputs": [
        {
          "internalType": "uint256",
          "name": "",
          "type": "uint256"
        }
      ],
      "stateMutability": "view",
      "type": "function"
    },
    {
      "inputs": [
        {
          "components": [
            {
              "internalType": "uint32",
              "name": "srcEid",
              "type": "uint32"
            },
            {
              "internalType": "bytes32",
              "name": "sender",
              "type": "bytes32"
            },
            {
              "internalType": "uint64",
              "name": "nonce",
              "type": "uint64"
            }
          ],
          "internalType": "struct Origin",
          "name": "origin",
          "type": "tuple"
        }
      ],
      "name": "allowInitializePath",
      "outputs": [
        {
          "internalType": "bool",
          "name": "",
          "type": "bool"
        }
      ],
      "stateMutability": "view",
      "type": "function"
    },
    {
      "inputs": [
        {
          "internalType": "uint256",
          "name": "numberOfTickets",
          "type": "uint256"
        }
      ],
      "name": "buyTickets",
      "outputs": [],
      "stateMutability": "payable",
      "type": "function"
    },
    {
      "inputs": [
        {
          "internalType": "uint32",
          "name": "_dstEid",
          "type": "uint32"
        },
        {
          "internalType": "uint256",
          "name": "numberOfTickets",
          "type": "uint256"
        },
        {
          "internalType": "bytes",
          "name": "_options",
          "type": "bytes"
        }
      ],
      "name": "buyTicketsCrossChain",
      "outputs": [],
      "stateMutability": "payable",
      "type": "function"
    },
    {
      "inputs": [],
      "name": "endLottery",
      "outputs": [],
      "stateMutability": "nonpayable",
      "type": "function"
    },
    {
      "inputs": [],
      "name": "endpoint",
      "outputs": [
        {
          "internalType": "contract ILayerZeroEndpointV2",
          "name": "",
          "type": "address"
        }
      ],
      "stateMutability": "view",
      "type": "function"
    },
    {
      "inputs": [
        {
          "internalType": "uint256",
          "name": "requestId",
          "type": "uint256"
        },
        {
          "internalType": "uint256[]",
          "name": "randomWords",
          "type": "uint256[]"
        }
      ],
      "name": "fulfillRandomWords",
      "outputs": [],
      "stateMutability": "nonpayable",
      "type": "function"
    },
    {
      "inputs": [],
      "name": "getLotteryBalance",
      "outputs": [
        {
          "internalType": "uint256",
          "name": "",
          "type": "uint256"
        }
      ],
      "stateMutability": "view",
      "type": "function"
    },
    {
      "inputs": [],
      "name": "getParticipants",
      "outputs": [
        {
          "internalType": "address[]",
          "name": "",
          "type": "address[]"
        }
      ],
      "stateMutability": "view",
      "type": "function"
    },
    {
      "inputs": [
        {
          "internalType": "address",
          "name": "addr",
          "type": "address"
        }
      ],
      "name": "getPendingWithdrawal",
      "outputs": [
        {
          "internalType": "uint256",
          "name": "",
          "type": "uint256"
        }
      ],
      "stateMutability": "view",
      "type": "function"
    },
    {
      "inputs": [],
      "name": "getTicketCounts",
      "outputs": [
        {
          "internalType": "uint256[]",
          "name": "",
          "type": "uint256[]"
        }
      ],
      "stateMutability": "view",
      "type": "function"
    },
    {
      "inputs": [],
      "name": "getTotalTickets",
      "outputs": [
        {
          "internalType": "uint256",
          "name": "",
          "type": "uint256"
        }
      ],
      "stateMutability": "view",
      "type": "function"
    },
    {
      "inputs": [],
      "name": "getWinner",
      "outputs": [
        {
          "internalType": "address",
          "name": "",
          "type": "address"
        }
      ],
      "stateMutability": "view",
      "type": "function"
    },
    {
      "inputs": [
        {
          "components": [
            {
              "internalType": "uint32",
              "name": "srcEid",
              "type": "uint32"
            },
            {
              "internalType": "bytes32",
              "name": "sender",
              "type": "bytes32"
            },
            {
              "internalType": "uint64",
              "name": "nonce",
              "type": "uint64"
            }
          ],
          "internalType": "struct Origin",
          "name": "",
          "type": "tuple"
        },
        {
          "internalType": "bytes",
          "name": "",
          "type": "bytes"
        },
        {
          "internalType": "address",
          "name": "_sender",
          "type": "address"
        }
      ],
      "name": "isComposeMsgSender",
      "outputs": [
        {
          "internalType": "bool",
          "name": "",
          "type": "bool"
        }
      ],
      "stateMutability": "view",
      "type": "function"
    },
    {
      "inputs": [],
      "name": "lotteryDuration",
      "outputs": [
        {
          "internalType": "uint256",
          "name": "",
          "type": "uint256"
        }
      ],
      "stateMutability": "view",
      "type": "function"
    },
    {
      "inputs": [],
      "name": "lotteryEndTime",
      "outputs": [
        {
          "internalType": "uint256",
          "name": "",
          "type": "uint256"
        }
      ],
      "stateMutability": "view",
      "type": "function"
    },
    {
      "inputs": [],
      "name": "lotteryEndingInitiated",
      "outputs": [
        {
          "internalType": "bool",
          "name": "",
          "type": "bool"
        }
      ],
      "stateMutability": "view",
      "type": "function"
    },
    {
      "inputs": [],
      "name": "lotteryId",
      "outputs": [
        {
          "internalType": "uint256",
          "name": "",
          "type": "uint256"
        }
      ],
      "stateMutability": "view",
      "type": "function"
    },
    {
      "inputs": [
        {
          "components": [
            {
              "internalType": "uint32",
              "name": "srcEid",
              "type": "uint32"
            },
            {
              "internalType": "bytes32",
              "name": "sender",
              "type": "bytes32"
            },
            {
              "internalType": "uint64",
              "name": "nonce",
              "type": "uint64"
            }
          ],
          "internalType": "struct Origin",
          "name": "_origin",
          "type": "tuple"
        },
        {
          "internalType": "bytes32",
          "name": "_guid",
          "type": "bytes32"
        },
        {
          "internalType": "bytes",
          "name": "_message",
          "type": "bytes"
        },
        {
          "internalType": "address",
          "name": "_executor",
          "type": "address"
        },
        {
          "internalType": "bytes",
          "name": "_extraData",
          "type": "bytes"
        }
      ],
      "name": "lzReceive",
      "outputs": [],
      "stateMutability": "payable",
      "type": "function"
    },
    {
      "inputs": [
        {
          "internalType": "uint32",
          "name": "",
          "type": "uint32"
        },
        {
          "internalType": "bytes32",
          "name": "",
          "type": "bytes32"
        }
      ],
      "name": "nextNonce",
      "outputs": [
        {
          "internalType": "uint64",
          "name": "nonce",
          "type": "uint64"
        }
      ],
      "stateMutability": "view",
      "type": "function"
    },
    {
      "inputs": [],
      "name": "oAppVersion",
      "outputs": [
        {
          "internalType": "uint64",
          "name": "senderVersion",
          "type": "uint64"
        },
        {
          "internalType": "uint64",
          "name": "receiverVersion",
          "type": "uint64"
        }
      ],
      "stateMutability": "pure",
      "type": "function"
    },
    {
      "inputs": [],
      "name": "owner",
      "outputs": [
        {
          "internalType": "address",
          "name": "",
          "type": "address"
        }
      ],
      "stateMutability": "view",
      "type": "function"
    },
    {
      "inputs": [
        {
          "internalType": "address",
          "name": "",
          "type": "address"
        }
      ],
      "name": "participantSourceChains",
      "outputs": [
        {
          "internalType": "uint32",
          "name": "",
          "type": "uint32"
        }
      ],
      "stateMutability": "view",
      "type": "function"
    },
    {
      "inputs": [
        {
          "internalType": "address",
          "name": "",
          "type": "address"
        }
      ],
      "name": "participantTicketCounts",
      "outputs": [
        {
          "internalType": "uint256",
          "name": "",
          "type": "uint256"
        }
      ],
      "stateMutability": "view",
      "type": "function"
    },
    {
      "inputs": [
        {
          "internalType": "uint256",
          "name": "",
          "type": "uint256"
        }
      ],
      "name": "participants",
      "outputs": [
        {
          "internalType": "address",
          "name": "",
          "type": "address"
        }
      ],
      "stateMutability": "view",
      "type": "function"
    },
    {
      "inputs": [
        {
          "internalType": "uint32",
          "name": "eid",
          "type": "uint32"
        }
      ],
      "name": "peers",
      "outputs": [
        {
          "internalType": "bytes32",
          "name": "peer",
          "type": "bytes32"
        }
      ],
      "stateMutability": "view",
      "type": "function"
    },
    {
      "inputs": [
        {
          "internalType": "address",
          "name": "",
          "type": "address"
        }
      ],
      "name": "pendingWithdrawals",
      "outputs": [
        {
          "internalType": "uint256",
          "name": "",
          "type": "uint256"
        }
      ],
      "stateMutability": "view",
      "type": "function"
    },
    {
      "inputs": [
        {
          "internalType": "uint32",
          "name": "_dstEid",
          "type": "uint32"
        },
        {
          "internalType": "uint256",
          "name": "numberOfTickets",
          "type": "uint256"
        },
        {
          "internalType": "bytes",
          "name": "_options",
          "type": "bytes"
        }
      ],
      "name": "quote",
      "outputs": [
        {
          "components": [
            {
              "internalType": "uint256",
              "name": "nativeFee",
              "type": "uint256"
            },
            {
              "internalType": "uint256",
              "name": "lzTokenFee",
              "type": "uint256"
            }
          ],
          "internalType": "struct MessagingFee",
          "name": "fee",
          "type": "tuple"
        }
      ],
      "stateMutability": "view",
      "type": "function"
    },
    {
      "inputs": [],
      "name": "renounceOwnership",
      "outputs": [],
      "stateMutability": "nonpayable",
      "type": "function"
    },
    {
      "inputs": [],
      "name": "s_requestId",
      "outputs": [
        {
          "internalType": "uint256",
          "name": "",
          "type": "uint256"
        }
      ],
      "stateMutability": "view",
      "type": "function"
    },
    {
      "inputs": [
        {
          "internalType": "address",
          "name": "_delegate",
          "type": "address"
        }
      ],
      "name": "setDelegate",
      "outputs": [],
      "stateMutability": "nonpayable",
      "type": "function"
    },
    {
      "inputs": [
        {
          "internalType": "uint256",
          "name": "_ticketPrice",
          "type": "uint256"
        },
        {
          "internalType": "uint256",
          "name": "_lotteryDuration",
          "type": "uint256"
        }
      ],
      "name": "setLotteryParameters",
      "outputs": [],
      "stateMutability": "nonpayable",
      "type": "function"
    },
    {
      "inputs": [
        {
          "internalType": "uint32",
          "name": "_eid",
          "type": "uint32"
        },
        {
          "internalType": "bytes32",
          "name": "_peer",
          "type": "bytes32"
        }
      ],
      "name": "setPeer",
      "outputs": [],
      "stateMutability": "nonpayable",
      "type": "function"
    },
    {
      "inputs": [
        {
          "internalType": "address",
          "name": "_vrfHandler",
          "type": "address"
        }
      ],
      "name": "setVRFHandler",
      "outputs": [],
      "stateMutability": "nonpayable",
      "type": "function"
    },
    {
      "inputs": [
        {
          "internalType": "uint256",
          "name": "_ticketPrice",
          "type": "uint256"
        },
        {
          "internalType": "uint256",
          "name": "_lotteryDuration",
          "type": "uint256"
        }
      ],
      "name": "startNewLottery",
      "outputs": [],
      "stateMutability": "nonpayable",
      "type": "function"
    },
    {
      "inputs": [
        {
          "internalType": "uint256",
          "name": "",
          "type": "uint256"
        }
      ],
      "name": "ticketCounts",
      "outputs": [
        {
          "internalType": "uint256",
          "name": "",
          "type": "uint256"
        }
      ],
      "stateMutability": "view",
      "type": "function"
    },
    {
      "inputs": [],
      "name": "ticketPrice",
      "outputs": [
        {
          "internalType": "uint256",
          "name": "",
          "type": "uint256"
        }
      ],
      "stateMutability": "view",
      "type": "function"
    },
    {
      "inputs": [],
      "name": "totalTickets",
      "outputs": [
        {
          "internalType": "uint256",
          "name": "",
          "type": "uint256"
        }
      ],
      "stateMutability": "view",
      "type": "function"
    },
    {
      "inputs": [
        {
          "internalType": "address",
          "name": "newOwner",
          "type": "address"
        }
      ],
      "name": "transferOwnership",
      "outputs": [],
      "stateMutability": "nonpayable",
      "type": "function"
    },
    {
      "inputs": [],
      "name": "vrfHandler",
      "outputs": [
        {
          "internalType": "address",
          "name": "",
          "type": "address"
        }
      ],
      "stateMutability": "view",
      "type": "function"
    },
    {
      "inputs": [],
      "name": "winner",
      "outputs": [
        {
          "internalType": "address",
          "name": "",
          "type": "address"
        }
      ],
      "stateMutability": "view",
      "type": "function"
    },
    {
      "inputs": [],
      "name": "winnerSelected",
      "outputs": [
        {
          "internalType": "bool",
          "name": "",
          "type": "bool"
        }
      ],
      "stateMutability": "view",
      "type": "function"
    },
    {
      "inputs": [
        {
          "internalType": "address payable",
          "name": "recipient",
          "type": "address"
        }
      ],
      "name": "withdraw",
      "outputs": [],
      "stateMutability": "nonpayable",
      "type": "function"
    },
    {
      "stateMutability": "payable",
      "type": "receive"
    }
  ],
  "transactionHash": "0xccc642798017cf2c7ff006893d8b1e92f4bcdf75ba65556159c0f761e98769bd",
  "args": [
    "0x6EDCE65403992e310A62460808c4b910D972f10f",
    "0x18AA3999b6D5112cA7824C4d0Ef7aD444E45e9Da"
  ],
  "numDeployments": 4,
  "solcInputHash": "b2e4761d663914a552d009bc8229c828",
  "bytecode": "0x60a06040523480156200001157600080fd5b5060405162002a4938038062002a4983398101604081905262000034916200017c565b81818181806001600160a01b0381166200006857604051631e4fbdf760e01b81526000600482015260240160405180910390fd5b62000073816200010f565b506001600160a01b038083166080528116620000a257604051632d618d8160e21b815260040160405180910390fd5b60805160405163ca5eb5e160e01b81526001600160a01b0383811660048301529091169063ca5eb5e190602401600060405180830381600087803b158015620000ea57600080fd5b505af1158015620000ff573d6000803e3d6000fd5b50505050505050505050620001b4565b600080546001600160a01b038381166001600160a01b0319831681178455604051919092169283917f8be0079c531659141344cd1fd0a4f28419497f9722a3daafe3b4186f6b6457e09190a35050565b80516001600160a01b03811681146200017757600080fd5b919050565b600080604083850312156200019057600080fd5b6200019b836200015f565b9150620001ab602084016200015f565b90509250929050565b60805161284f620001fa600039600081816104e80152818161095e01528181611660015281816117c6015281816118bb01528181611e0e0152611ec5015261284f6000f3fe6080604052600436106102605760003560e01c8063662259c311610144578063b918d37b116100b6578063e580f47b1161007a578063e580f47b14610767578063e89e106a1461077d578063f2fde38b14610793578063f3f43703146107b3578063f7aaac62146107e0578063ff7bd03d1461080057600080fd5b8063b918d37b146106c4578063bb0b6a53146106e4578063ca5eb5e114610711578063dd11247e14610731578063dfbf53ae1461074757600080fd5b80637ee8b2f8116101085780637ee8b2f8146105da57806382413eac146106105780638a96faa91461064f5780638d382812146106705780638da5cb5b146106915780638e7ea5b2146106af57600080fd5b8063662259c31461051d57806370ee798c1461053f578063715018a61461056c5780637953656f146105815780637d25a05e146105a157600080fd5b8063309a7932116101dd5780634d2627b4116101a15780634d2627b41461043957806351cff8d9146104745780635aa68ac0146104945780635ced8ef0146104b65780635e280f11146104d657806360654e471461050a57600080fd5b8063309a79321461038b5780633400288b146103ab57806335c1d349146103cb57806338ba46141461040357806343662a7e1461042357600080fd5b806317442b701161022457806317442b70146102e35780631a7dfa9f146103055780631da3e5f11461031a5780632d97902f146103625780632f3666371461037857600080fd5b80630661f9fa1461026c57806306e8337f146102815780631209b1f6146102a557806313137d65146102bb5780631593a8c7146102ce57600080fd5b3661026757005b600080fd5b61027f61027a36600461208e565b610820565b005b34801561028d57600080fd5b50600b545b6040519081526020015b60405180910390f35b3480156102b157600080fd5b5061029260025481565b61027f6102c93660046121b3565b61095c565b3480156102da57600080fd5b5061027f610a0e565b3480156102ef57600080fd5b506040805160018152600260208201520161029c565b34801561031157600080fd5b50610292600a81565b34801561032657600080fd5b5061034d610335366004612253565b600d6020526000908152604090205463ffffffff1681565b60405163ffffffff909116815260200161029c565b34801561036e57600080fd5b5061029260035481565b61027f610386366004612277565b610bfa565b34801561039757600080fd5b5061027f6103a6366004612290565b610caf565b3480156103b757600080fd5b5061027f6103c63660046122b2565b610d6b565b3480156103d757600080fd5b506103eb6103e6366004612277565b610d81565b6040516001600160a01b03909116815260200161029c565b34801561040f57600080fd5b5061027f61041e3660046122dc565b610dab565b34801561042f57600080fd5b5061029260045481565b34801561044557600080fd5b5061045961045436600461208e565b6111ec565b6040805182518152602092830151928101929092520161029c565b34801561048057600080fd5b5061027f61048f366004612253565b61125e565b3480156104a057600080fd5b506104a96113c2565b60405161029c919061235b565b3480156104c257600080fd5b506006546103eb906001600160a01b031681565b3480156104e257600080fd5b506103eb7f000000000000000000000000000000000000000000000000000000000000000081565b34801561051657600080fd5b5047610292565b34801561052957600080fd5b50610532611424565b60405161029c91906123a8565b34801561054b57600080fd5b5061029261055a366004612253565b600c6020526000908152604090205481565b34801561057857600080fd5b5061027f61147b565b34801561058d57600080fd5b5061027f61059c366004612290565b61148f565b3480156105ad57600080fd5b506105c16105bc3660046122b2565b6115a3565b60405167ffffffffffffffff909116815260200161029c565b3480156105e657600080fd5b506102926105f5366004612253565b6001600160a01b03166000908152600e602052604090205490565b34801561061c57600080fd5b5061063f61062b3660046123e0565b6001600160a01b0381163014949350505050565b604051901515815260200161029c565b34801561065b57600080fd5b5060075461063f90600160a01b900460ff1681565b34801561067c57600080fd5b5060075461063f90600160a81b900460ff1681565b34801561069d57600080fd5b506000546001600160a01b03166103eb565b3480156106bb57600080fd5b506103eb6115ac565b3480156106d057600080fd5b506102926106df366004612277565b611618565b3480156106f057600080fd5b506102926106ff366004612447565b60016020526000908152604090205481565b34801561071d57600080fd5b5061027f61072c366004612253565b611639565b34801561073d57600080fd5b50610292600b5481565b34801561075357600080fd5b506007546103eb906001600160a01b031681565b34801561077357600080fd5b5061029260095481565b34801561078957600080fd5b5061029260085481565b34801561079f57600080fd5b5061027f6107ae366004612253565b6116bf565b3480156107bf57600080fd5b506102926107ce366004612253565b600e6020526000908152604090205481565b3480156107ec57600080fd5b5061027f6107fb366004612253565b6116fa565b34801561080c57600080fd5b5061063f61081b366004612462565b61177a565b600754600160a01b900460ff16156108535760405162461bcd60e51b815260040161084a9061247e565b60405180910390fd5b600082116108735760405162461bcd60e51b815260040161084a906124b5565b600082600254610883919061250c565b60408051336020820152808201869052815180820383018152606082019092529192506000916108b891600191608001612547565b604051602081830303815290604052905060006108d886838660006117b0565b80519091506108e79084612576565b34101561092d5760405162461bcd60e51b8152602060048201526014602482015273125b9cdd59999a58da595b9d081c185e5b595b9d60621b604482015260640161084a565b610953868386604051806040016040528086600001518152602001600081525033611888565b50505050505050565b7f00000000000000000000000000000000000000000000000000000000000000006001600160a01b031633146109a7576040516391ac5e4f60e01b815233600482015260240161084a565b602087018035906109c1906109bc908a612447565b611993565b146109ff576109d36020880188612447565b60405163309afaf360e21b815263ffffffff90911660048201526020880135602482015260440161084a565b610953878787878787876119cf565b600354421015610a585760405162461bcd60e51b8152602060048201526015602482015274131bdd1d195c9e481b9bdd081e595d08195b991959605a1b604482015260640161084a565b600754600160a01b900460ff1615610ab25760405162461bcd60e51b815260206004820181905260248201527f4c6f747465727920656e64696e6720616c726561647920696e69746961746564604482015260640161084a565b600554610b015760405162461bcd60e51b815260206004820152601e60248201527f4e6f207061727469636970616e747320696e20746865206c6f74746572790000604482015260640161084a565b6007805460ff60a01b1916600160a01b1790556006546040805163e0c8628960e01b815290516001600160a01b039092169163e0c862899160048082019260209290919082900301816000875af1158015610b60573d6000803e3d6000fd5b505050506040513d601f19601f82011682018060405250810190610b849190612589565b6008556040517f561134d922e45bb12d364cbecc335e2590c1e848b2ccfa28b4f62d3f06770d9b90610bb59061247e565b60405180910390a17f7fcb39adb5b831fa03838de8ac6af690f48e3339ee8300eff17b1cd8035054df600854604051610bf091815260200190565b60405180910390a1565b600754600160a01b900460ff1615610c245760405162461bcd60e51b815260040161084a9061247e565b60008111610c445760405162461bcd60e51b815260040161084a906124b5565b80600254610c52919061250c565b3414610ca05760405162461bcd60e51b815260206004820152601860248201527f496e636f7272656374207061796d656e7420616d6f756e740000000000000000604482015260640161084a565b610cac33826000611b60565b50565b610cb7611cb3565b6002829055600381905560098054906000610cd1836125a2565b90915550506007805461ffff60a01b19169055610cf060056000611fb3565b600780546001600160a01b0319169055610d0c600a6000611fb3565b6000600b556009546002546003547fa9ed5345414b4b191eba560cc458e991cb726392ec9da4d45162cad5b9a5763a929190610d489042612576565b604080519384526020840192909252908201526060015b60405180910390a15050565b610d73611cb3565b610d7d8282611ce0565b5050565b60058181548110610d9157600080fd5b6000918252602090912001546001600160a01b0316905081565b6006546001600160a01b03163314610e155760405162461bcd60e51b815260206004820152602760248201527f4f6e6c79205652462068616e646c65722063616e2063616c6c207468697320666044820152663ab731ba34b7b760c91b606482015260840161084a565b8260085414610e585760405162461bcd60e51b815260206004820152600f60248201526e15dc9bdb99c81c995c5d595cdd1259608a1b604482015260640161084a565b600754600160a01b900460ff16610eb15760405162461bcd60e51b815260206004820152601c60248201527f4c6f747465727920656e64696e67206e6f7420696e6974696174656400000000604482015260640161084a565b600554610ef25760405162461bcd60e51b815260206004820152600f60248201526e4e6f207061727469636970616e747360881b604482015260640161084a565b600754600160a81b900460ff1615610f4c5760405162461bcd60e51b815260206004820152601760248201527f57696e6e657220616c72656164792073656c6563746564000000000000000000604482015260640161084a565b6000600b5483836000818110610f6457610f646125bb565b90506020020135610f7591906125e7565b90506000805b600a5481101561100357600a8181548110610f9857610f986125bb565b906000526020600020015482610fae9190612576565b915081831015610ffb5760058181548110610fcb57610fcb6125bb565b600091825260209091200154600780546001600160a01b0319166001600160a01b03909216919091179055611003565b600101610f7b565b504760006064611014600a826125fb565b61101e908461250c565b611028919061260e565b9050600061103682846125fb565b6007805460ff60a81b198116600160a81b179091556001600160a01b03166000908152600d602052604081205491925063ffffffff90911690808281036110945760075461108d906001600160a01b031686611d2e565b9150611113565b600754604080516001600160a01b039092166020830152818101879052805180830382018152606083019091526000916110d391600291608001612547565b60408051601f1981840301815260208381018352600080855283518085019094528a845290830152925061110c91869184919030611888565b5060019250505b61112e6111286000546001600160a01b031690565b85611d2e565b905081611153576007546001600160a01b03166000908152600e602052604090208590555b8061118a5783600e600061116f6000546001600160a01b031690565b6001600160a01b031681526020810191909152604001600020555b600754604080516001600160a01b03909216825260208201879052831515828201528215156060830152517fe6ed82ce01049905da150fec4e9adf2da87e92377b9ed9307d9df0aa7efd7a719181900360800190a15050505050505050505050565b60408051808201909152600080825260208201526040805133602082015290810184905260009060019060600160408051601f19818403018152908290526112379291602001612547565b604051602081830303815290604052905061125585828560006117b0565b95945050505050565b6000546001600160a01b031633148061127f5750336001600160a01b038216145b6112bc5760405162461bcd60e51b815260206004820152600e60248201526d139bdd08185d5d1a1bdc9a5e995960921b604482015260640161084a565b6001600160a01b0381166000908152600e6020526040902054806113195760405162461bcd60e51b81526020600482015260146024820152734e6f2066756e647320746f20776974686472617760601b604482015260640161084a565b6001600160a01b0382166000818152600e60205260408082208290555190919083908381818185875af1925050503d8060008114611373576040519150601f19603f3d011682016040523d82523d6000602084013e611378565b606091505b50509050806113bd5760405162461bcd60e51b815260206004820152601160248201527015da5d1a191c985dd85b0819985a5b1959607a1b604482015260640161084a565b505050565b6060600580548060200260200160405190810160405280929190818152602001828054801561141a57602002820191906000526020600020905b81546001600160a01b031681526001909101906020018083116113fc575b5050505050905090565b6060600a80548060200260200160405190810160405280929190818152602001828054801561141a57602002820191906000526020600020905b81548152602001906001019080831161145e575050505050905090565b611483611cb3565b61148d6000611d92565b565b611497611cb3565b600754600160a81b900460ff16806114af5750600554155b6114fb5760405162461bcd60e51b815260206004820152601960248201527f43757272656e74206c6f7474657279206e6f7420656e64656400000000000000604482015260640161084a565b6009805490600061150b836125a2565b9091555050600282905561151f8142612576565b6004556007805461ffff60a01b1916905561153c60056000611fb3565b600780546001600160a01b0319169055611558600a6000611fb3565b6000600b55600954600254600454604080519384526020840192909252908201527fa9ed5345414b4b191eba560cc458e991cb726392ec9da4d45162cad5b9a5763a90606001610d5f565b60005b92915050565b600754600090600160a81b900460ff166116085760405162461bcd60e51b815260206004820152601960248201527f4c6f747465727920686173206e6f7420656e6465642079657400000000000000604482015260640161084a565b506007546001600160a01b031690565b600a818154811061162857600080fd5b600091825260209091200154905081565b611641611cb3565b60405163ca5eb5e160e01b81526001600160a01b0382811660048301527f0000000000000000000000000000000000000000000000000000000000000000169063ca5eb5e190602401600060405180830381600087803b1580156116a457600080fd5b505af11580156116b8573d6000803e3d6000fd5b5050505050565b6116c7611cb3565b6001600160a01b0381166116f157604051631e4fbdf760e01b81526000600482015260240161084a565b610cac81611d92565b611702611cb3565b6001600160a01b0381166117585760405162461bcd60e51b815260206004820152601b60248201527f496e76616c6964205652462068616e646c657220616464726573730000000000604482015260640161084a565b600680546001600160a01b0319166001600160a01b0392909216919091179055565b60006020820180359060019083906117929086612447565b63ffffffff1681526020810191909152604001600020541492915050565b60408051808201909152600080825260208201527f00000000000000000000000000000000000000000000000000000000000000006001600160a01b031663ddc28c586040518060a001604052808863ffffffff16815260200161181389611993565b8152602001878152602001868152602001851515815250306040518363ffffffff1660e01b815260040161184892919061264e565b6040805180830381865afa158015611864573d6000803e3d6000fd5b505050506040513d601f19601f820116820180604052508101906112559190612716565b611890611fd1565b600061189f8460000151611de2565b6020850151909150156118b9576118b98460200151611e0a565b7f00000000000000000000000000000000000000000000000000000000000000006001600160a01b0316632637a450826040518060a001604052808b63ffffffff1681526020016119098c611993565b81526020018a815260200189815260200160008960200151111515815250866040518463ffffffff1660e01b815260040161194592919061264e565b60806040518083038185885af1158015611963573d6000803e3d6000fd5b50505050506040513d601f19601f820116820180604052508101906119889190612732565b979650505050505050565b63ffffffff8116600090815260016020526040812054806115a65760405163f6ff4fb760e01b815263ffffffff8416600482015260240161084a565b83611a0c5760405162461bcd60e51b815260206004820152600d60248201526c115b5c1d1e481c185e5b1bd859609a1b604482015260640161084a565b600085856000818110611a2157611a216125bb565b919091013560f81c915060009050611a3c866001818a6127a4565b8080601f01602080910402602001604051908101604052809392919081815260200183838082843760009201919091525092935050505060ff821660001901611ab95760008082806020019051810190611a9691906127ce565b9092509050611ab28282611aad60208f018f612447565b611b60565b5050611b55565b60011960ff831601611b165760008082806020019051810190611adc91906127ce565b6001600160a01b0382166000908152600e6020526040812080549395509193508392611b09908490612576565b90915550611b5592505050565b60405162461bcd60e51b8152602060048201526014602482015273556e6b6e6f776e206d657373616765207479706560601b604482015260640161084a565b505050505050505050565b6001600160a01b0383166000908152600c60205260408120549003611bcb57600580546001810182556000919091527f036b6384b5eca791c62761152d0c79bb0604c104a5fb6f4eb0703f3154bb3db00180546001600160a01b0319166001600160a01b0385161790555b6001600160a01b0383166000908152600c602052604081208054849290611bf3908490612576565b90915550506001600160a01b0383166000908152600d60205260408120805463ffffffff191663ffffffff8416179055600a80546001810182559082527fc65a7bb8d6351c1cf70c95a316cc6a92839c986682d98bc35f958f4883f9d2a801839055600b8054849290611c67908490612576565b9091555050604080516001600160a01b0385168152602081018490527f0668f5b446eb814fe35b3206f43f14bd8567ba04ddaf7a3ee56516929ab22ccb910160405180910390a1505050565b6000546001600160a01b0316331461148d5760405163118cdaa760e01b815233600482015260240161084a565b63ffffffff8216600081815260016020908152604091829020849055815192835282018390527f238399d427b947898edb290f5ff0f9109849b1c3ba196a42e35f00c50a54b98b9101610d5f565b600080836001600160a01b031683620186a090604051600060405180830381858888f193505050503d8060008114611d82576040519150601f19603f3d011682016040523d82523d6000602084013e611d87565b606091505b509095945050505050565b600080546001600160a01b038381166001600160a01b0319831681178455604051919092169283917f8be0079c531659141344cd1fd0a4f28419497f9722a3daafe3b4186f6b6457e09190a35050565b6000813414611e06576040516304fb820960e51b815234600482015260240161084a565b5090565b60007f00000000000000000000000000000000000000000000000000000000000000006001600160a01b031663e4fe1d946040518163ffffffff1660e01b8152600401602060405180830381865afa158015611e6a573d6000803e3d6000fd5b505050506040513d601f19601f82011682018060405250810190611e8e91906127fc565b90506001600160a01b038116611eb7576040516329b99a9560e11b815260040160405180910390fd5b6040805133602482018190527f00000000000000000000000000000000000000000000000000000000000000006001600160a01b03818116604485015260648085018890528551808603909101815260849094019094526020830180516001600160e01b03166323b872dd60e01b179052610d7d938516928690611f3c908590611f42565b50505050565b600080602060008451602086016000885af180611f65576040513d6000823e3d81fd5b50506000513d91508115611f7d578060011415611f8a565b6001600160a01b0384163b155b15611f3c57604051635274afe760e01b81526001600160a01b038516600482015260240161084a565b5080546000825590600052602060002090810190610cac9190612019565b604051806060016040528060008019168152602001600067ffffffffffffffff168152602001612014604051806040016040528060008152602001600081525090565b905290565b5b80821115611e06576000815560010161201a565b803563ffffffff8116811461204257600080fd5b919050565b634e487b7160e01b600052604160045260246000fd5b604051601f8201601f1916810167ffffffffffffffff8111828210171561208657612086612047565b604052919050565b6000806000606084860312156120a357600080fd5b6120ac8461202e565b92506020808501359250604085013567ffffffffffffffff808211156120d157600080fd5b818701915087601f8301126120e557600080fd5b8135818111156120f7576120f7612047565b612109601f8201601f1916850161205d565b9150808252888482850101111561211f57600080fd5b80848401858401376000848284010152508093505050509250925092565b60006060828403121561214f57600080fd5b50919050565b60008083601f84011261216757600080fd5b50813567ffffffffffffffff81111561217f57600080fd5b60208301915083602082850101111561219757600080fd5b9250929050565b6001600160a01b0381168114610cac57600080fd5b600080600080600080600060e0888a0312156121ce57600080fd5b6121d8898961213d565b965060608801359550608088013567ffffffffffffffff808211156121fc57600080fd5b6122088b838c01612155565b909750955060a08a0135915061221d8261219e565b90935060c0890135908082111561223357600080fd5b506122408a828b01612155565b989b979a50959850939692959293505050565b60006020828403121561226557600080fd5b81356122708161219e565b9392505050565b60006020828403121561228957600080fd5b5035919050565b600080604083850312156122a357600080fd5b50508035926020909101359150565b600080604083850312156122c557600080fd5b6122ce8361202e565b946020939093013593505050565b6000806000604084860312156122f157600080fd5b83359250602084013567ffffffffffffffff8082111561231057600080fd5b818601915086601f83011261232457600080fd5b81358181111561233357600080fd5b8760208260051b850101111561234857600080fd5b6020830194508093505050509250925092565b6020808252825182820181905260009190848201906040850190845b8181101561239c5783516001600160a01b031683529284019291840191600101612377565b50909695505050505050565b6020808252825182820181905260009190848201906040850190845b8181101561239c578351835292840192918401916001016123c4565b60008060008060a085870312156123f657600080fd5b612400868661213d565b9350606085013567ffffffffffffffff81111561241c57600080fd5b61242887828801612155565b909450925050608085013561243c8161219e565b939692955090935050565b60006020828403121561245957600080fd5b6122708261202e565b60006060828403121561247457600080fd5b612270838361213d565b60208082526018908201527f4c6f747465727920656e64696e6720696e697469617465640000000000000000604082015260600190565b60208082526021908201527f4d757374207075726368617365206174206c65617374206f6e65207469636b656040820152601d60fa1b606082015260800190565b634e487b7160e01b600052601160045260246000fd5b80820281158282048414176115a6576115a66124f6565b60005b8381101561253e578181015183820152602001612526565b50506000910152565b60ff60f81b8360f81b16815260008251612568816001850160208701612523565b919091016001019392505050565b808201808211156115a6576115a66124f6565b60006020828403121561259b57600080fd5b5051919050565b6000600182016125b4576125b46124f6565b5060010190565b634e487b7160e01b600052603260045260246000fd5b634e487b7160e01b600052601260045260246000fd5b6000826125f6576125f66125d1565b500690565b818103818111156115a6576115a66124f6565b60008261261d5761261d6125d1565b500490565b6000815180845261263a816020860160208601612523565b601f01601f19169290920160200192915050565b6040815263ffffffff8351166040820152602083015160608201526000604084015160a0608084015261268460e0840182612622565b90506060850151603f198483030160a08501526126a18282612622565b60809690960151151560c08501525050506001600160a01b039190911660209091015290565b6000604082840312156126d957600080fd5b6040516040810181811067ffffffffffffffff821117156126fc576126fc612047565b604052825181526020928301519281019290925250919050565b60006040828403121561272857600080fd5b61227083836126c7565b60006080828403121561274457600080fd5b6040516060810167ffffffffffffffff828210818311171561276857612768612047565b816040528451835260208501519150808216821461278557600080fd5b50602082015261279884604085016126c7565b60408201529392505050565b600080858511156127b457600080fd5b838611156127c157600080fd5b5050820193919092039150565b600080604083850312156127e157600080fd5b82516127ec8161219e565b6020939093015192949293505050565b60006020828403121561280e57600080fd5b81516122708161219e56fea2646970667358221220940ea3223b9f0192d2573e5e856e797f5c6abda4a3e41d8d5eca59640045fc1e64736f6c63430008160033",
  "devdoc": {
    "errors": {
      "OwnableInvalidOwner(address)": [
        {
          "details": "The owner is not a valid owner account. (eg. `address(0)`)"
        }
      ],
      "OwnableUnauthorizedAccount(address)": [
        {
          "details": "The caller account is not authorized to perform an operation."
        }
      ],
      "SafeERC20FailedOperation(address)": [
        {
          "details": "An operation with an ERC-20 token failed."
        }
      ]
    },
    "kind": "dev",
    "methods": {
      "allowInitializePath((uint32,bytes32,uint64))": {
        "details": "This indicates to the endpoint that the OApp has enabled msgs for this particular path to be received.This defaults to assuming if a peer has been set, its initialized. Can be overridden by the OApp if there is other logic to determine this.",
        "params": {
          "origin": "The origin information containing the source endpoint and sender address."
        },
        "returns": {
          "_0": "Whether the path has been initialized."
        }
      },
      "isComposeMsgSender((uint32,bytes32,uint64),bytes,address)": {
        "details": "_origin The origin information containing the source endpoint and sender address.  - srcEid: The source chain endpoint ID.  - sender: The sender address on the src chain.  - nonce: The nonce of the message._message The lzReceive payload.Applications can optionally choose to implement separate composeMsg senders that are NOT the bridging layer.The default sender IS the OAppReceiver implementer.",
        "params": {
          "_sender": "The sender address."
        },
        "returns": {
          "_0": "isSender Is a valid sender."
        }
      },
      "lzReceive((uint32,bytes32,uint64),bytes32,bytes,address,bytes)": {
        "details": "Entry point for receiving messages or packets from the endpoint.Entry point for receiving msg/packet from the LayerZero endpoint.",
        "params": {
          "_executor": "The address of the executor for the received message.",
          "_extraData": "Additional arbitrary data provided by the corresponding executor.",
          "_guid": "The unique identifier for the received LayerZero message.",
          "_message": "The payload of the received message.",
          "_origin": "The origin information containing the source endpoint and sender address.  - srcEid: The source chain endpoint ID.  - sender: The sender address on the src chain.  - nonce: The nonce of the message."
        }
      },
      "nextNonce(uint32,bytes32)": {
        "details": "_srcEid The source endpoint ID._sender The sender address.The path nonce starts from 1. If 0 is returned it means that there is NO nonce ordered enforcement.Is required by the off-chain executor to determine the OApp expects msg execution is ordered.This is also enforced by the OApp.By default this is NOT enabled. ie. nextNonce is hardcoded to return 0.",
        "returns": {
          "nonce": "The next nonce."
        }
      },
      "oAppVersion()": {
        "returns": {
          "receiverVersion": "The version of the OAppReceiver.sol implementation.",
          "senderVersion": "The version of the OAppSender.sol implementation."
        }
      },
      "owner()": {
        "details": "Returns the address of the current owner."
      },
      "renounceOwnership()": {
        "details": "Leaves the contract without owner. It will not be possible to call `onlyOwner` functions. Can only be called by the current owner. NOTE: Renouncing ownership will leave the contract without an owner, thereby disabling any functionality that is only available to the owner."
      },
      "setDelegate(address)": {
        "details": "Only the owner/admin of the OApp can call this function.Provides the ability for a delegate to set configs, on behalf of the OApp, directly on the Endpoint contract.",
        "params": {
          "_delegate": "The address of the delegate to be set."
        }
      },
      "setPeer(uint32,bytes32)": {
        "details": "Only the owner/admin of the OApp can call this function.Indicates that the peer is trusted to send LayerZero messages to this OApp.Set this to bytes32(0) to remove the peer address.Peer is a bytes32 to accommodate non-evm chains.",
        "params": {
          "_eid": "The endpoint ID.",
          "_peer": "The address of the peer to be associated with the corresponding endpoint."
        }
      },
      "transferOwnership(address)": {
        "details": "Transfers ownership of the contract to a new account (`newOwner`). Can only be called by the current owner."
      }
    },
    "version": 1
  },
  "userdoc": {
    "kind": "user",
    "methods": {
      "allowInitializePath((uint32,bytes32,uint64))": {
        "notice": "Checks if the path initialization is allowed based on the provided origin."
      },
      "endpoint()": {
        "notice": "Retrieves the LayerZero endpoint associated with the OApp."
      },
      "isComposeMsgSender((uint32,bytes32,uint64),bytes,address)": {
        "notice": "Indicates whether an address is an approved composeMsg sender to the Endpoint."
      },
      "nextNonce(uint32,bytes32)": {
        "notice": "Retrieves the next nonce for a given source endpoint and sender address."
      },
      "oAppVersion()": {
        "notice": "Retrieves the OApp version information."
      },
      "peers(uint32)": {
        "notice": "Retrieves the peer (OApp) associated with a corresponding endpoint."
      },
      "setDelegate(address)": {
        "notice": "Sets the delegate address for the OApp."
      },
      "setPeer(uint32,bytes32)": {
        "notice": "Sets the peer address (OApp instance) for a corresponding endpoint."
      }
    },
    "version": 1
  },
  "storageLayout": {
    "storage": [
      {
        "astId": 2742,
        "contract": "contracts/UnifiedLottery.sol:UnifiedLottery",
        "label": "_owner",
        "offset": 0,
        "slot": "0",
        "type": "t_address"
      },
      {
        "astId": 1825,
        "contract": "contracts/UnifiedLottery.sol:UnifiedLottery",
        "label": "peers",
        "offset": 0,
        "slot": "1",
        "type": "t_mapping(t_uint32,t_bytes32)"
      },
      {
        "astId": 5564,
        "contract": "contracts/UnifiedLottery.sol:UnifiedLottery",
        "label": "ticketPrice",
        "offset": 0,
        "slot": "2",
        "type": "t_uint256"
      },
      {
        "astId": 5566,
        "contract": "contracts/UnifiedLottery.sol:UnifiedLottery",
        "label": "lotteryDuration",
        "offset": 0,
        "slot": "3",
        "type": "t_uint256"
      },
      {
        "astId": 5568,
        "contract": "contracts/UnifiedLottery.sol:UnifiedLottery",
        "label": "lotteryEndTime",
        "offset": 0,
        "slot": "4",
        "type": "t_uint256"
      },
      {
        "astId": 5571,
        "contract": "contracts/UnifiedLottery.sol:UnifiedLottery",
        "label": "participants",
        "offset": 0,
        "slot": "5",
        "type": "t_array(t_address)dyn_storage"
      },
      {
        "astId": 5573,
        "contract": "contracts/UnifiedLottery.sol:UnifiedLottery",
        "label": "vrfHandler",
        "offset": 0,
        "slot": "6",
        "type": "t_address"
      },
      {
        "astId": 5575,
        "contract": "contracts/UnifiedLottery.sol:UnifiedLottery",
        "label": "winner",
        "offset": 0,
        "slot": "7",
        "type": "t_address"
      },
      {
        "astId": 5577,
        "contract": "contracts/UnifiedLottery.sol:UnifiedLottery",
        "label": "lotteryEndingInitiated",
        "offset": 20,
        "slot": "7",
        "type": "t_bool"
      },
      {
        "astId": 5579,
        "contract": "contracts/UnifiedLottery.sol:UnifiedLottery",
        "label": "winnerSelected",
        "offset": 21,
        "slot": "7",
        "type": "t_bool"
      },
      {
        "astId": 5584,
        "contract": "contracts/UnifiedLottery.sol:UnifiedLottery",
        "label": "s_requestId",
        "offset": 0,
        "slot": "8",
        "type": "t_uint256"
      },
      {
        "astId": 5586,
        "contract": "contracts/UnifiedLottery.sol:UnifiedLottery",
        "label": "lotteryId",
        "offset": 0,
        "slot": "9",
        "type": "t_uint256"
      },
      {
        "astId": 5589,
        "contract": "contracts/UnifiedLottery.sol:UnifiedLottery",
        "label": "ticketCounts",
        "offset": 0,
        "slot": "10",
        "type": "t_array(t_uint256)dyn_storage"
      },
      {
        "astId": 5591,
        "contract": "contracts/UnifiedLottery.sol:UnifiedLottery",
        "label": "totalTickets",
        "offset": 0,
        "slot": "11",
        "type": "t_uint256"
      },
      {
        "astId": 5595,
        "contract": "contracts/UnifiedLottery.sol:UnifiedLottery",
        "label": "participantTicketCounts",
        "offset": 0,
        "slot": "12",
        "type": "t_mapping(t_address,t_uint256)"
      },
      {
        "astId": 5599,
        "contract": "contracts/UnifiedLottery.sol:UnifiedLottery",
        "label": "participantSourceChains",
        "offset": 0,
        "slot": "13",
        "type": "t_mapping(t_address,t_uint32)"
      },
      {
        "astId": 5603,
        "contract": "contracts/UnifiedLottery.sol:UnifiedLottery",
        "label": "pendingWithdrawals",
        "offset": 0,
        "slot": "14",
        "type": "t_mapping(t_address,t_uint256)"
      }
    ],
    "types": {
      "t_address": {
        "encoding": "inplace",
        "label": "address",
        "numberOfBytes": "20"
      },
      "t_array(t_address)dyn_storage": {
        "base": "t_address",
        "encoding": "dynamic_array",
        "label": "address[]",
        "numberOfBytes": "32"
      },
      "t_array(t_uint256)dyn_storage": {
        "base": "t_uint256",
        "encoding": "dynamic_array",
        "label": "uint256[]",
        "numberOfBytes": "32"
      },
      "t_bool": {
        "encoding": "inplace",
        "label": "bool",
        "numberOfBytes": "1"
      },
      "t_bytes32": {
        "encoding": "inplace",
        "label": "bytes32",
        "numberOfBytes": "32"
      },
      "t_mapping(t_address,t_uint256)": {
        "encoding": "mapping",
        "key": "t_address",
        "label": "mapping(address => uint256)",
        "numberOfBytes": "32",
        "value": "t_uint256"
      },
      "t_mapping(t_address,t_uint32)": {
        "encoding": "mapping",
        "key": "t_address",
        "label": "mapping(address => uint32)",
        "numberOfBytes": "32",
        "value": "t_uint32"
      },
      "t_mapping(t_uint32,t_bytes32)": {
        "encoding": "mapping",
        "key": "t_uint32",
        "label": "mapping(uint32 => bytes32)",
        "numberOfBytes": "32",
        "value": "t_bytes32"
      },
      "t_uint256": {
        "encoding": "inplace",
        "label": "uint256",
        "numberOfBytes": "32"
      },
      "t_uint32": {
        "encoding": "inplace",
        "label": "uint32",
        "numberOfBytes": "4"
      }
    }
  }
}