{
  "_format": "hh-sol-artifact-1",
  "contractName": "PolyLotteryTimelock",
  "sourceName": "contracts/PolyLottery_timelock.sol",
  "abi": [
    {
      "inputs": [
        {
          "internalType": "uint256",
          "name": "_ticketPrice",
          "type": "uint256"
        },
        {
          "internalType": "uint256",
          "name": "_lotteryDuration",
          "type": "uint256"
        },
        {
          "internalType": "address",
          "name": "_vrfCoordinator",
          "type": "address"
        },
        {
          "internalType": "uint256",
          "name": "_subscriptionId",
          "type": "uint256"
        },
        {
          "internalType": "bytes32",
          "name": "_keyHash",
          "type": "bytes32"
        }
      ],
      "stateMutability": "nonpayable",
      "type": "constructor"
    },
    {
      "inputs": [
        {
          "internalType": "address",
          "name": "have",
          "type": "address"
        },
        {
          "internalType": "address",
          "name": "want",
          "type": "address"
        }
      ],
      "name": "OnlyCoordinatorCanFulfill",
      "type": "error"
    },
    {
      "inputs": [
        {
          "internalType": "address",
          "name": "have",
          "type": "address"
        },
        {
          "internalType": "address",
          "name": "owner",
          "type": "address"
        },
        {
          "internalType": "address",
          "name": "coordinator",
          "type": "address"
        }
      ],
      "name": "OnlyOwnerOrCoordinator",
      "type": "error"
    },
    {
      "inputs": [],
      "name": "ZeroAddress",
      "type": "error"
    },
    {
      "anonymous": false,
      "inputs": [
        {
          "indexed": false,
          "internalType": "address",
          "name": "vrfCoordinator",
          "type": "address"
        }
      ],
      "name": "CoordinatorSet",
      "type": "event"
    },
    {
      "anonymous": false,
      "inputs": [
        {
          "indexed": false,
          "internalType": "uint256",
          "name": "requestId",
          "type": "uint256"
        }
      ],
      "name": "LotteryEndRequested",
      "type": "event"
    },
    {
      "anonymous": false,
      "inputs": [
        {
          "indexed": false,
          "internalType": "address",
          "name": "winner",
          "type": "address"
        },
        {
          "indexed": false,
          "internalType": "uint256",
          "name": "prize",
          "type": "uint256"
        },
        {
          "indexed": false,
          "internalType": "bool",
          "name": "winnerPaid",
          "type": "bool"
        },
        {
          "indexed": false,
          "internalType": "bool",
          "name": "ownerPaid",
          "type": "bool"
        }
      ],
      "name": "LotteryEnded",
      "type": "event"
    },
    {
      "anonymous": false,
      "inputs": [
        {
          "indexed": false,
          "internalType": "string",
          "name": "step",
          "type": "string"
        }
      ],
      "name": "LotteryEndingStep",
      "type": "event"
    },
    {
      "anonymous": false,
      "inputs": [
        {
          "indexed": false,
          "internalType": "uint256",
          "name": "lotteryId",
          "type": "uint256"
        },
        {
          "indexed": false,
          "internalType": "uint256",
          "name": "ticketPrice",
          "type": "uint256"
        },
        {
          "indexed": false,
          "internalType": "uint256",
          "name": "endTime",
          "type": "uint256"
        }
      ],
      "name": "NewLotteryStarted",
      "type": "event"
    },
    {
      "anonymous": false,
      "inputs": [
        {
          "indexed": true,
          "internalType": "address",
          "name": "from",
          "type": "address"
        },
        {
          "indexed": true,
          "internalType": "address",
          "name": "to",
          "type": "address"
        }
      ],
      "name": "OwnershipTransferRequested",
      "type": "event"
    },
    {
      "anonymous": false,
      "inputs": [
        {
          "indexed": true,
          "internalType": "address",
          "name": "from",
          "type": "address"
        },
        {
          "indexed": true,
          "internalType": "address",
          "name": "to",
          "type": "address"
        }
      ],
      "name": "OwnershipTransferred",
      "type": "event"
    },
    {
      "anonymous": false,
      "inputs": [
        {
          "indexed": false,
          "internalType": "uint256",
          "name": "requestId",
          "type": "uint256"
        }
      ],
      "name": "RandomWordsRequested",
      "type": "event"
    },
    {
      "anonymous": false,
      "inputs": [
        {
          "indexed": false,
          "internalType": "address",
          "name": "buyer",
          "type": "address"
        }
      ],
      "name": "TicketPurchased",
      "type": "event"
    },
    {
      "anonymous": false,
      "inputs": [
        {
          "indexed": false,
          "internalType": "address",
          "name": "buyer",
          "type": "address"
        },
        {
          "indexed": false,
          "internalType": "uint256",
          "name": "numberOfTickets",
          "type": "uint256"
        }
      ],
      "name": "TicketsPurchased",
      "type": "event"
    },
    {
      "inputs": [],
      "name": "CREATOR_FEE",
      "outputs": [
        {
          "internalType": "uint256",
          "name": "",
          "type": "uint256"
        }
      ],
      "stateMutability": "view",
      "type": "function"
    },
    {
      "inputs": [],
      "name": "acceptOwnership",
      "outputs": [],
      "stateMutability": "nonpayable",
      "type": "function"
    },
    {
      "inputs": [
        {
          "internalType": "uint256",
          "name": "numberOfTickets",
          "type": "uint256"
        }
      ],
      "name": "buyTickets",
      "outputs": [],
      "stateMutability": "payable",
      "type": "function"
    },
    {
      "inputs": [],
      "name": "endLottery",
      "outputs": [],
      "stateMutability": "nonpayable",
      "type": "function"
    },
    {
      "inputs": [],
      "name": "getLotteryBalance",
      "outputs": [
        {
          "internalType": "uint256",
          "name": "",
          "type": "uint256"
        }
      ],
      "stateMutability": "view",
      "type": "function"
    },
    {
      "inputs": [],
      "name": "getParticipants",
      "outputs": [
        {
          "internalType": "address[]",
          "name": "",
          "type": "address[]"
        }
      ],
      "stateMutability": "view",
      "type": "function"
    },
    {
      "inputs": [
        {
          "internalType": "address",
          "name": "addr",
          "type": "address"
        }
      ],
      "name": "getPendingWithdrawal",
      "outputs": [
        {
          "internalType": "uint256",
          "name": "",
          "type": "uint256"
        }
      ],
      "stateMutability": "view",
      "type": "function"
    },
    {
      "inputs": [],
      "name": "getTicketCounts",
      "outputs": [
        {
          "internalType": "uint256[]",
          "name": "",
          "type": "uint256[]"
        }
      ],
      "stateMutability": "view",
      "type": "function"
    },
    {
      "inputs": [],
      "name": "getTotalTickets",
      "outputs": [
        {
          "internalType": "uint256",
          "name": "",
          "type": "uint256"
        }
      ],
      "stateMutability": "view",
      "type": "function"
    },
    {
      "inputs": [],
      "name": "getWinner",
      "outputs": [
        {
          "internalType": "address",
          "name": "",
          "type": "address"
        }
      ],
      "stateMutability": "view",
      "type": "function"
    },
    {
      "inputs": [],
      "name": "lotteryDuration",
      "outputs": [
        {
          "internalType": "uint256",
          "name": "",
          "type": "uint256"
        }
      ],
      "stateMutability": "view",
      "type": "function"
    },
    {
      "inputs": [],
      "name": "lotteryEndTime",
      "outputs": [
        {
          "internalType": "uint256",
          "name": "",
          "type": "uint256"
        }
      ],
      "stateMutability": "view",
      "type": "function"
    },
    {
      "inputs": [],
      "name": "lotteryEndingInitiated",
      "outputs": [
        {
          "internalType": "bool",
          "name": "",
          "type": "bool"
        }
      ],
      "stateMutability": "view",
      "type": "function"
    },
    {
      "inputs": [],
      "name": "lotteryId",
      "outputs": [
        {
          "internalType": "uint256",
          "name": "",
          "type": "uint256"
        }
      ],
      "stateMutability": "view",
      "type": "function"
    },
    {
      "inputs": [],
      "name": "owner",
      "outputs": [
        {
          "internalType": "address",
          "name": "",
          "type": "address"
        }
      ],
      "stateMutability": "view",
      "type": "function"
    },
    {
      "inputs": [
        {
          "internalType": "uint256",
          "name": "",
          "type": "uint256"
        }
      ],
      "name": "participants",
      "outputs": [
        {
          "internalType": "address",
          "name": "",
          "type": "address"
        }
      ],
      "stateMutability": "view",
      "type": "function"
    },
    {
      "inputs": [
        {
          "internalType": "address",
          "name": "",
          "type": "address"
        }
      ],
      "name": "pendingWithdrawals",
      "outputs": [
        {
          "internalType": "uint256",
          "name": "",
          "type": "uint256"
        }
      ],
      "stateMutability": "view",
      "type": "function"
    },
    {
      "inputs": [
        {
          "internalType": "uint256",
          "name": "requestId",
          "type": "uint256"
        },
        {
          "internalType": "uint256[]",
          "name": "randomWords",
          "type": "uint256[]"
        }
      ],
      "name": "rawFulfillRandomWords",
      "outputs": [],
      "stateMutability": "nonpayable",
      "type": "function"
    },
    {
      "inputs": [],
      "name": "s_requestId",
      "outputs": [
        {
          "internalType": "uint256",
          "name": "",
          "type": "uint256"
        }
      ],
      "stateMutability": "view",
      "type": "function"
    },
    {
      "inputs": [],
      "name": "s_vrfCoordinator",
      "outputs": [
        {
          "internalType": "contract IVRFCoordinatorV2Plus",
          "name": "",
          "type": "address"
        }
      ],
      "stateMutability": "view",
      "type": "function"
    },
    {
      "inputs": [
        {
          "internalType": "address",
          "name": "_vrfCoordinator",
          "type": "address"
        }
      ],
      "name": "setCoordinator",
      "outputs": [],
      "stateMutability": "nonpayable",
      "type": "function"
    },
    {
      "inputs": [
        {
          "internalType": "uint256",
          "name": "_ticketPrice",
          "type": "uint256"
        },
        {
          "internalType": "uint256",
          "name": "_lotteryDuration",
          "type": "uint256"
        }
      ],
      "name": "setLotteryParameters",
      "outputs": [],
      "stateMutability": "nonpayable",
      "type": "function"
    },
    {
      "inputs": [
        {
          "internalType": "uint256",
          "name": "_ticketPrice",
          "type": "uint256"
        },
        {
          "internalType": "uint256",
          "name": "_lotteryDuration",
          "type": "uint256"
        }
      ],
      "name": "startNewLottery",
      "outputs": [],
      "stateMutability": "nonpayable",
      "type": "function"
    },
    {
      "inputs": [
        {
          "internalType": "uint256",
          "name": "",
          "type": "uint256"
        }
      ],
      "name": "ticketCounts",
      "outputs": [
        {
          "internalType": "uint256",
          "name": "",
          "type": "uint256"
        }
      ],
      "stateMutability": "view",
      "type": "function"
    },
    {
      "inputs": [],
      "name": "ticketPrice",
      "outputs": [
        {
          "internalType": "uint256",
          "name": "",
          "type": "uint256"
        }
      ],
      "stateMutability": "view",
      "type": "function"
    },
    {
      "inputs": [],
      "name": "totalTickets",
      "outputs": [
        {
          "internalType": "uint256",
          "name": "",
          "type": "uint256"
        }
      ],
      "stateMutability": "view",
      "type": "function"
    },
    {
      "inputs": [
        {
          "internalType": "address",
          "name": "to",
          "type": "address"
        }
      ],
      "name": "transferOwnership",
      "outputs": [],
      "stateMutability": "nonpayable",
      "type": "function"
    },
    {
      "inputs": [],
      "name": "winner",
      "outputs": [
        {
          "internalType": "address",
          "name": "",
          "type": "address"
        }
      ],
      "stateMutability": "view",
      "type": "function"
    },
    {
      "inputs": [],
      "name": "winnerSelected",
      "outputs": [
        {
          "internalType": "bool",
          "name": "",
          "type": "bool"
        }
      ],
      "stateMutability": "view",
      "type": "function"
    },
    {
      "inputs": [
        {
          "internalType": "address payable",
          "name": "recipient",
          "type": "address"
        }
      ],
      "name": "withdraw",
      "outputs": [],
      "stateMutability": "nonpayable",
      "type": "function"
    }
  ],
  "bytecode": "0x60806040523480156200001157600080fd5b5060405162001c4d38038062001c4d83398101604081905262000034916200039e565b8233806000816200008c5760405162461bcd60e51b815260206004820152601860248201527f43616e6e6f7420736574206f776e657220746f207a65726f000000000000000060448201526064015b60405180910390fd5b600080546001600160a01b0319166001600160a01b0384811691909117909155811615620000bf57620000bf8162000156565b5050506001600160a01b038116620000ea5760405163d92e233d60e01b815260040160405180910390fd5b600280546001600160a01b0319166001600160a01b0392909216919091179055600385905560048490556200012084426200040d565b6007556009829055600a819055600c80546001600160a01b031916331790556200014b858562000201565b505050505062000445565b336001600160a01b03821603620001b05760405162461bcd60e51b815260206004820152601760248201527f43616e6e6f74207472616e7366657220746f2073656c66000000000000000000604482015260640162000083565b600180546001600160a01b0319166001600160a01b0383811691821790925560008054604051929316917fed8889f560326eb138920d842192f0eb3dd22b4f139c87a2c57538e05bae12789190a350565b600c546001600160a01b03163314620002495760405162461bcd60e51b81526020600482015260096024820152682737ba1037bbb732b960b91b604482015260640162000083565b600854610100900460ff1680620002605750600554155b620002ae5760405162461bcd60e51b815260206004820152601960248201527f43757272656e74206c6f7474657279206e6f7420656e64656400000000000000604482015260640162000083565b600d8054906000620002c08362000429565b90915550506003829055620002d681426200040d565b6007556008805461ffff19169055620002f26005600062000360565b600680546001600160a01b031916905562000310600e600062000360565b6000600f55600d5460035460075460408051938452602084019290925282820152517fa9ed5345414b4b191eba560cc458e991cb726392ec9da4d45162cad5b9a5763a9181900360600190a15050565b508054600082559060005260206000209081019062000380919062000383565b50565b5b808211156200039a576000815560010162000384565b5090565b600080600080600060a08688031215620003b757600080fd5b85516020870151604088015191965094506001600160a01b0381168114620003de57600080fd5b6060870151608090970151959894975095949392505050565b634e487b7160e01b600052601160045260246000fd5b80820180821115620004235762000423620003f7565b92915050565b6000600182016200043e576200043e620003f7565b5060010190565b6117f880620004556000396000f3fe6080604052600436106101cd5760003560e01c806379ba5097116100f75780639eccacf611610095578063e580f47b11610064578063e580f47b146104e3578063e89e106a146104f9578063f2fde38b1461050f578063f3f437031461052f57600080fd5b80639eccacf61461046d578063b918d37b1461048d578063dd11247e146104ad578063dfbf53ae146104c357600080fd5b80638d382812116100d15780638d382812146103fb5780638da5cb5b1461041a5780638e7ea5b2146104385780638ea981171461044d57600080fd5b806379ba5097146103865780637ee8b2f81461039b5780638a96faa9146103d157600080fd5b8063309a79321161016f5780635aa68ac01161013e5780635aa68ac01461030f57806360654e4714610331578063662259c3146103445780637953656f1461036657600080fd5b8063309a79321461028157806335c1d349146102a157806343662a7e146102d957806351cff8d9146102ef57600080fd5b80631a7dfa9f116101ab5780631a7dfa9f146102235780631fe543e3146102385780632d97902f146102585780632f3666371461026e57600080fd5b806306e8337f146101d25780631209b1f6146101f65780631593a8c71461020c575b600080fd5b3480156101de57600080fd5b50600f545b6040519081526020015b60405180910390f35b34801561020257600080fd5b506101e360035481565b34801561021857600080fd5b5061022161055c565b005b34801561022f57600080fd5b506101e3600a81565b34801561024457600080fd5b506102216102533660046114d5565b610705565b34801561026457600080fd5b506101e360045481565b61022161027c366004611554565b610755565b34801561028d57600080fd5b5061022161029c36600461156d565b6108c6565b3480156102ad57600080fd5b506102c16102bc366004611554565b610917565b6040516001600160a01b0390911681526020016101ed565b3480156102e557600080fd5b506101e360075481565b3480156102fb57600080fd5b5061022161030a3660046115a4565b610941565b34801561031b57600080fd5b50610324610aa0565b6040516101ed91906115c8565b34801561033d57600080fd5b50476101e3565b34801561035057600080fd5b50610359610b02565b6040516101ed9190611615565b34801561037257600080fd5b5061022161038136600461156d565b610b59565b34801561039257600080fd5b50610221610cab565b3480156103a757600080fd5b506101e36103b63660046115a4565b6001600160a01b031660009081526010602052604090205490565b3480156103dd57600080fd5b506008546103eb9060ff1681565b60405190151581526020016101ed565b34801561040757600080fd5b506008546103eb90610100900460ff1681565b34801561042657600080fd5b506000546001600160a01b03166102c1565b34801561044457600080fd5b506102c1610d55565b34801561045957600080fd5b506102216104683660046115a4565b610dbf565b34801561047957600080fd5b506002546102c1906001600160a01b031681565b34801561049957600080fd5b506101e36104a8366004611554565b610eab565b3480156104b957600080fd5b506101e3600f5481565b3480156104cf57600080fd5b506006546102c1906001600160a01b031681565b3480156104ef57600080fd5b506101e3600d5481565b34801561050557600080fd5b506101e3600b5481565b34801561051b57600080fd5b5061022161052a3660046115a4565b610ecc565b34801561053b57600080fd5b506101e361054a3660046115a4565b60106020526000908152604090205481565b6007544210156105ab5760405162461bcd60e51b8152602060048201526015602482015274131bdd1d195c9e481b9bdd081e595d08195b991959605a1b60448201526064015b60405180910390fd5b60085460ff16156105fe5760405162461bcd60e51b815260206004820181905260248201527f4c6f747465727920656e64696e6720616c726561647920696e6974696174656460448201526064016105a2565b60055461064d5760405162461bcd60e51b815260206004820152601e60248201527f4e6f207061727469636970616e747320696e20746865206c6f7474657279000060448201526064016105a2565b6008805460ff19166001179055610662610ee0565b600b556040517f561134d922e45bb12d364cbecc335e2590c1e848b2ccfa28b4f62d3f06770d9b906106c090602080825260189082015277131bdd1d195c9e48195b991a5b99c81a5b9a5d1a585d195960421b604082015260600190565b60405180910390a17f7fcb39adb5b831fa03838de8ac6af690f48e3339ee8300eff17b1cd8035054df600b546040516106fb91815260200190565b60405180910390a1565b6002546001600160a01b031633146107455760025460405163073e64fd60e21b81523360048201526001600160a01b0390911660248201526044016105a2565b610750838383610fa8565b505050565b60085460ff16156107a35760405162461bcd60e51b8152602060048201526018602482015277131bdd1d195c9e48195b991a5b99c81a5b9a5d1a585d195960421b60448201526064016105a2565b806003546107b19190611663565b34146107ff5760405162461bcd60e51b815260206004820152601860248201527f496e636f7272656374207061796d656e7420616d6f756e74000000000000000060448201526064016105a2565b6005805460018181019092557f036b6384b5eca791c62761152d0c79bb0604c104a5fb6f4eb0703f3154bb3db00180546001600160a01b03191633179055600e8054918201815560009081527fbb7b4a454dc3493923482f07822329ed19e8244eff582cc204f8554c3620c3fd909101829055600f805483929061088490849061167a565b909155505060408051338152602081018390527fe11731cb4f1eb3ec3dd09bdc96809bb07365f4c881cda3192b397a4bc0b6da4091015b60405180910390a150565b600c546001600160a01b0316331461090c5760405162461bcd60e51b81526020600482015260096024820152682737ba1037bbb732b960b91b60448201526064016105a2565b600391909155600455565b6005818154811061092757600080fd5b6000918252602090912001546001600160a01b0316905081565b600c546001600160a01b03163314806109625750336001600160a01b038216145b61099f5760405162461bcd60e51b815260206004820152600e60248201526d139bdd08185d5d1a1bdc9a5e995960921b60448201526064016105a2565b6001600160a01b038116600090815260106020526040902054806109fc5760405162461bcd60e51b81526020600482015260146024820152734e6f2066756e647320746f20776974686472617760601b60448201526064016105a2565b6001600160a01b0382166000818152601060205260408082208290555190919083908381818185875af1925050503d8060008114610a56576040519150601f19603f3d011682016040523d82523d6000602084013e610a5b565b606091505b50509050806107505760405162461bcd60e51b815260206004820152601160248201527015da5d1a191c985dd85b0819985a5b1959607a1b60448201526064016105a2565b60606005805480602002602001604051908101604052809291908181526020018280548015610af857602002820191906000526020600020905b81546001600160a01b03168152600190910190602001808311610ada575b5050505050905090565b6060600e805480602002602001604051908101604052809291908181526020018280548015610af857602002820191906000526020600020905b815481526020019060010190808311610b3c575050505050905090565b600c546001600160a01b03163314610b9f5760405162461bcd60e51b81526020600482015260096024820152682737ba1037bbb732b960b91b60448201526064016105a2565b600854610100900460ff1680610bb55750600554155b610c015760405162461bcd60e51b815260206004820152601960248201527f43757272656e74206c6f7474657279206e6f7420656e6465640000000000000060448201526064016105a2565b600d8054906000610c118361168d565b90915550506003829055610c25814261167a565b6007556008805461ffff19169055610c3f600560006114a3565b600680546001600160a01b0319169055610c5b600e60006114a3565b6000600f55600d5460035460075460408051938452602084019290925282820152517fa9ed5345414b4b191eba560cc458e991cb726392ec9da4d45162cad5b9a5763a9181900360600190a15050565b6001546001600160a01b03163314610cfe5760405162461bcd60e51b815260206004820152601660248201527526bab9ba10313290383937b837b9b2b21037bbb732b960511b60448201526064016105a2565b60008054336001600160a01b0319808316821784556001805490911690556040516001600160a01b0390921692909183917f8be0079c531659141344cd1fd0a4f28419497f9722a3daafe3b4186f6b6457e091a350565b600854600090610100900460ff16610daf5760405162461bcd60e51b815260206004820152601960248201527f4c6f747465727920686173206e6f7420656e646564207965740000000000000060448201526064016105a2565b506006546001600160a01b031690565b6000546001600160a01b03163314801590610de557506002546001600160a01b03163314155b15610e365733610dfd6000546001600160a01b031690565b60025460405163061db9c160e01b81526001600160a01b03938416600482015291831660248301529190911660448201526064016105a2565b6001600160a01b038116610e5d5760405163d92e233d60e01b815260040160405180910390fd5b600280546001600160a01b0319166001600160a01b0383169081179091556040519081527fd1a6a14209a385a964d036e404cb5cfb71f4000cdb03c9366292430787261be6906020016108bb565b600e8181548110610ebb57600080fd5b600091825260209091200154905081565b610ed46112ce565b610edd81611323565b50565b6002546040805160c081018252600a548152600954602080830191909152600382840152620186a060608301526001608083015282519081019092526000808352926001600160a01b031691639b1c385e919060a0820190610f41906113cc565b8152506040518263ffffffff1660e01b8152600401610f6091906116a6565b6020604051808303816000875af1158015610f7f573d6000803e3d6000fd5b505050506040513d601f19601f82011682018060405250810190610fa39190611742565b905090565b82600b5414610feb5760405162461bcd60e51b815260206004820152600f60248201526e15dc9bdb99c81c995c5d595cdd1259608a1b60448201526064016105a2565b60085460ff1661103d5760405162461bcd60e51b815260206004820152601c60248201527f4c6f747465727920656e64696e67206e6f7420696e697469617465640000000060448201526064016105a2565b60055461107e5760405162461bcd60e51b815260206004820152600f60248201526e4e6f207061727469636970616e747360881b60448201526064016105a2565b600854610100900460ff16156110d65760405162461bcd60e51b815260206004820152601760248201527f57696e6e657220616c72656164792073656c656374656400000000000000000060448201526064016105a2565b6000600f54838360008181106110ee576110ee61175b565b905060200201356110ff9190611787565b90506000805b600e5481101561119757600e81815481106111225761112261175b565b906000526020600020015482611138919061167a565b91508183101561118557600581815481106111555761115561175b565b600091825260209091200154600680546001600160a01b0319166001600160a01b03909216919091179055611197565b8061118f8161168d565b915050611105565b5047600060646111a8600a8261179b565b6111b29084611663565b6111bc91906117ae565b905060006111ca828461179b565b6008805461ff0019166101001790556006549091506000906111f5906001600160a01b03168461143d565b600c54909150600090611211906001600160a01b03168461143d565b905081611236576006546001600160a01b031660009081526010602052604090208490555b8061126d5782601060006112526000546001600160a01b031690565b6001600160a01b031681526020810191909152604001600020555b600654604080516001600160a01b03909216825260208201869052831515828201528215156060830152517fe6ed82ce01049905da150fec4e9adf2da87e92377b9ed9307d9df0aa7efd7a719181900360800190a150505050505050505050565b6000546001600160a01b031633146113215760405162461bcd60e51b815260206004820152601660248201527527b7363c9031b0b63630b1363290313c9037bbb732b960511b60448201526064016105a2565b565b336001600160a01b0382160361137b5760405162461bcd60e51b815260206004820152601760248201527f43616e6e6f74207472616e7366657220746f2073656c6600000000000000000060448201526064016105a2565b600180546001600160a01b0319166001600160a01b0383811691821790925560008054604051929316917fed8889f560326eb138920d842192f0eb3dd22b4f139c87a2c57538e05bae12789190a350565b60607f92fd13387c7fe7befbc38d303d6468778fb9731bc4583f17d92989c6fcfdeaaa8260405160240161140591511515815260200190565b60408051601f198184030181529190526020810180516001600160e01b03166001600160e01b03199093169290921790915292915050565b600080836001600160a01b031683620186a090604051600060405180830381858888f193505050503d8060008114611491576040519150601f19603f3d011682016040523d82523d6000602084013e611496565b606091505b5090925050505b92915050565b5080546000825590600052602060002090810190610edd91905b808211156114d157600081556001016114bd565b5090565b6000806000604084860312156114ea57600080fd5b83359250602084013567ffffffffffffffff8082111561150957600080fd5b818601915086601f83011261151d57600080fd5b81358181111561152c57600080fd5b8760208260051b850101111561154157600080fd5b6020830194508093505050509250925092565b60006020828403121561156657600080fd5b5035919050565b6000806040838503121561158057600080fd5b50508035926020909101359150565b6001600160a01b0381168114610edd57600080fd5b6000602082840312156115b657600080fd5b81356115c18161158f565b9392505050565b6020808252825182820181905260009190848201906040850190845b818110156116095783516001600160a01b0316835292840192918401916001016115e4565b50909695505050505050565b6020808252825182820181905260009190848201906040850190845b8181101561160957835183529284019291840191600101611631565b634e487b7160e01b600052601160045260246000fd5b808202811582820484141761149d5761149d61164d565b8082018082111561149d5761149d61164d565b60006001820161169f5761169f61164d565b5060010190565b6000602080835283518184015280840151604084015261ffff6040850151166060840152606084015163ffffffff80821660808601528060808701511660a0860152505060a084015160c08085015280518060e086015260005b8181101561171d5782810184015186820161010001528301611700565b506101009250600083828701015282601f19601f830116860101935050505092915050565b60006020828403121561175457600080fd5b5051919050565b634e487b7160e01b600052603260045260246000fd5b634e487b7160e01b600052601260045260246000fd5b60008261179657611796611771565b500690565b8181038181111561149d5761149d61164d565b6000826117bd576117bd611771565b50049056fea26469706673582212204206879ce8d3b31656b15b86cc9336c40edfc6b8ada21ee881ce4359d82a43fe64736f6c63430008130033",
  "linkReferences": {},
  "deployedLinkReferences": {}
}